:100000000C9462000C948A000C948A000C948A0070
:100010000C948A000C948A000C948A000C948A0038
:100020000C948A000C948A000C948A000C948A0028
:100030000C948A000C948A000C948A000C948A0018
:100040000C9442050C948A000C9410050C94EA045C
:100050000C948A000C948A000C948A000C948A00F8
:100060000C948A000C948A000000000024002700F1
:100070002A0000000000250028002B0000000008D6
:10008000000201000003040700000000000000005F
:1000900000000000230026002900040404040404D6
:1000A0000404020202020202030303030303010227
:1000B00004081020408001020408102001020408F6
:1000C00010208C0511241FBECFEFD8E0DEBFCDBFBE
:1000D00011E0A0E0B1E0EEE1F3E102C005900D9285
:1000E000A637B107D9F722E0A6E7B1E001C01D921B
:1000F000AE32B207E1F710E0C2E6D0E004C02197CB
:10010000FE010E944607C136D107C9F70E94D905F2
:100110000C948D090C9400008F929F92AF92BF9225
:10012000CF92DF92EF92FF92CF93DF93A0912302C1
:10013000882311F03A2F01C030E08091240290E032
:10014000880F991F80579F4FC0902902D0902A0294
:10015000E0902B02F0902C0240E050E0BA01FC014C
:10016000C591D49128812A2323130FC04A015B0132
:100170002FEF821A920AA20AB20A4C155D056E058B
:100180007F0538F4B501A401EACF342F252FCB0128
:1001900004C030E020E080E090E0632F722FDF9118
:1001A000CF91FF90EF90DF90CF90BF90AF909F9056
:1001B0008F900895CF92DF92EF92FF920F931F934B
:1001C000CF93DF936C017A018B01C0E0D0E0CE15B4
:1001D000DF0589F0D8016D918D01D601ED91FC917B
:1001E0000190F081E02DC6010995892B11F47E0163
:1001F00002C02196ECCFC701DF91CF911F910F91E3
:10020000FF90EF90DF90CF900895FC01918D828D4B
:10021000981761F0828DDF01A80FB11D5D968C915A
:10022000928D9F5F9F73928F90E008958FEF9FEF65
:100230000895FC01918D828D981731F0828DE80F21
:10024000F11D858D90E008958FEF9FEF0895FC01DB
:10025000918D228D892F90E0805C9F4F821B9109A8
:100260008F73992708958FE791E00E94270121E07D
:10027000892B09F420E0822F0895FC01848DDF0191
:10028000A80FB11DA35ABF4F2C91848D90E0019609
:100290008F739927848FA689B7892C93A089B189F8
:1002A0008C9180648C93938D848D981306C0028802
:1002B000F389E02D80818F7D80830895EF92FF92F6
:1002C0000F931F93CF93DF93EC0181E0888F9B8D79
:1002D0008C8D981305C0E889F989808185FD24C03B
:1002E000F62E0B8D10E00F5F1F4F0F731127E02EBE
:1002F0008C8DE8120CC00FB607FCFACFE889F9899B
:10030000808185FFF5CFCE010E943D01F1CF8B8D1D
:10031000FE01E80FF11DE35AFF4FF0820B8FEA89CF
:10032000FB898081806207C0EE89FF896083E8894C
:10033000F98980818064808381E090E0DF91CF91B2
:100340001F910F91FF90EF900895CF93DF93EC01F1
:10035000888D8823C9F0EA89FB89808185FD05C0E5
:10036000A889B9898C9186FD0FC00FB607FCF5CF1F
:10037000808185FFF2CFA889B9898C9185FFEDCF67
:10038000CE010E943D01E7CFDF91CF91089580E03B
:1003900090E0892B29F00E94330181110C94000018
:1003A000089590E0FC01E458FF4F3491FC01E255C0
:1003B000FF4F2491FC01E656FF4FE491EE2309F430
:1003C0003BC0332339F1333091F038F43130A9F0A8
:1003D000323001F584B58F7D12C0373091F038305E
:1003E000A1F03430B9F4809180008F7D03C08091FA
:1003F00080008F77809380000DC084B58F7784BD97
:1004000009C08091B0008F7703C08091B0008F7DCC
:100410008093B000F0E0EE0FFF1FEE58FF4FA59164
:10042000B4918FB7F894EC91611103C020952E23FD
:1004300001C02E2B2C938FBF0895CF93DF9390E0B4
:10044000FC01E255FF4F2491FC01E656FF4F8491D9
:10045000882361F190E0880F991FFC01E859FF4F54
:10046000C591D491FC01EE58FF4FA591B491611153
:1004700009C09FB7F8948881209582238883EC91E6
:100480002E230BC0623061F49FB7F8943881822F1D
:10049000809583238883EC912E2B2C939FBF06C0DD
:1004A0008FB7F894E8812E2B28838FBFDF91CF91EF
:1004B00008953FB7F8948091770190917801A091C9
:1004C0007901B0917A0126B5A89B05C02F3F19F09C
:1004D0000196A11DB11D3FBFBA2FA92F982F8827C4
:1004E000820F911DA11DB11DBC01CD0142E0660F1F
:1004F000771F881F991F4A95D1F708958F929F9271
:10050000AF92BF92CF92DF92EF92FF926B017C018C
:100510000E9459024B015C01C114D104E104F104B1
:10052000F1F00E945902DC01CB0188199909AA094E
:10053000BB09883E9340A105B10570F321E0C21AC2
:10054000D108E108F10888EE880E83E0981EA11C0E
:10055000B11CC114D104E104F10419F7DDCFFF90FF
:10056000EF90DF90CF90BF90AF909F908F900895C5
:10057000CF92DF92EF92FF920F931F93CF93DF936F
:10058000CDB7DEB7C054D1400FB6F894DEBF0FBE72
:10059000CDBF2FB7F89480917B0190917C01A09101
:1005A0007D01B0917E012FBF40912502509126021E
:1005B00060912702709128028C019D01041B150B8C
:1005C000260B370BB901A801403D57406105710565
:1005D00018F480912D02BCC08093250290932602CE
:1005E000A0932702B09328021092200210921F02BB
:1005F00010921E0210921D0210921C0261E0809166
:1006000021020E94D1016AEF70E080E090E00E9438
:100610007E0261E0809121020E941D0260E08091D3
:1006200021020E94D10164E170E080E090E00E942C
:100630007E02F89461E0809121020E94D1018BE951
:1006400090E00197F1F762E0809121020E941D0283
:1006500083E290E00197F1F780E00E948C00672B25
:10066000682B692B21F410922D0278943EC081E012
:100670000E948C00672B682B692BA9F38E010F5FFA
:100680001F4F6E012FEBC21A2EEFD20A780180E0C5
:100690000E948C00F701608371838283938381E0E1
:1006A0000E948C00F7016483758386839783F8E04A
:1006B000EF0EF11CEC14FD0451F7789420E030E0CB
:1006C000F8014081518162817381C480D580E680C8
:1006D000F780411551056105710529F0C114D10458
:1006E000E104F10421F410922D0280E031C0F901FF
:1006F00083E0F595E7958A95E1F7E45EFD4F80810B
:10070000880F4C155D056E057F0508F481608083B8
:100710002F5F3F4F085F1F4F2832310589F6209128
:10072000200230E040911C0280911D0290E0840F75
:10073000911D40911E02840F911D40911F02840F54
:10074000911D99272817390771F681E080932D02B2
:10075000C05CDE4F0FB6F894DEBF0FBECDBFDF9199
:10076000CF911F910F91FF90EF90DF90CF90089560
:10077000009769F0FC0101900020E9F73197AF0183
:10078000481B590BBC018FE791E00C94DA0080E024
:1007900090E008958F929F92AF92BF920F931F9314
:1007A000CF93DF93CDB7DEB7A1970FB6F894DEBF36
:1007B0000FBECDBF19A2423008F44AE08E010F5D92
:1007C0001F4F842E912CA12CB12CA50194010E94C5
:1007D0002407E62FB901CA0101501109EA3014F4C7
:1007E000E05D01C0E95CD801EC93232B242B252B81
:1007F00061F7C8010E94B803A1960FB6F894DEBF56
:100800000FBECDBFDF91CF911F910F91BF90AF90E1
:100810009F908F9008954F925F926F927F928F92E8
:100820009F92AF92BF92CF92DF92EF92FF926B01B5
:100830007C01B42E9B01AC010E948309882319F02E
:1008400080E191E027C026013701E89477F82FEF87
:100850003FEF4FE75FE7C301B2010E9483098111B7
:100860000DC02FEF3FEF4FE75FE7C301B2010E94DA
:10087000B90718161CF484E191E00CC02FEF3FEF8C
:100880004FE75FE4C701B6010E941109181684F40E
:1008900088E191E0FF90EF90DF90CF90BF90AF9014
:1008A0009F908F907F906F905F904F900C94B803C3
:1008B0002FEF3FEF4FE75FECC701B6010E94B9078A
:1008C00087FDE6CF20E030E0A901C701B6010E9414
:1008D000B90787FF11C0E0917F01F091800101907D
:1008E000F081E02D6DE28FE791E009954C01F7FA78
:1008F000F094F7F8F09402C0812C912CA12C60E0C8
:1009000070E080E09FE3AB1441F020E030E040E293
:1009100051E40E94BE07A394F6CF9B01AC01C7012E
:10092000B6010E944D072B013C010E9430086B016B
:100930007C010E945F089B01AC01C301B2010E94CF
:100940004C072B013C014AE0C701B6010E94CA03D3
:100950007C01E80CF91CBB2031F08CE191E00E9495
:10096000B803E80EF91EDB2CDD2021F120E030E099
:1009700040E251E4C301B2010E9416092B013C017F
:100980000E9430084B01A12CB12C4AE0C501B401F2
:100990000E94CA03E80EF91EC501B4010E945F0857
:1009A0009B01AC01C301B2010E944C072B013C0129
:1009B000DA94DACFC701FF90EF90DF90CF90BF902D
:1009C000AF909F908F907F906F905F904F90089521
:1009D0000E9488091F920F920FB60F9211242F9335
:1009E0003F934F935F936F937F938F939F93AF93B7
:1009F000BF93EF93FF938FE791E00E943D01FF913A
:100A0000EF91BF91AF919F918F917F916F915F9186
:100A10004F913F912F910F900FBE0F901F901895FF
:100A20001F920F920FB60F9211242F938F939F93C3
:100A3000EF93FF93E0918F01F09190018081E0911D
:100A40009501F091960182FD12C0908180919801EC
:100A50008F5F8F7320919901821751F0E091980177
:100A6000F0E0E158FE4F958F8093980101C080819E
:100A7000FF91EF919F918F912F910F900FBE0F904B
:100A80001F9018951F920F920FB60F9211242F935B
:100A90003F938F939F93AF93BF9380917B019091EE
:100AA0007C01A0917D01B0917E013091760123E01F
:100AB000230F2D3720F40196A11DB11D05C026E896
:100AC000230F0296A11DB11D2093760180937B0117
:100AD00090937C01A0937D01B0937E01809177017A
:100AE00090917801A0917901B0917A010196A11DB0
:100AF000B11D8093770190937801A0937901B09311
:100B00007A01BF91AF919F918F913F912F910F905B
:100B10000FBE0F901F901895EFE7F1E0138212823D
:100B200088EE93E0A0E0B0E084839583A683B7834A
:100B300084E091E09183808385EC90E095878487C1
:100B400084EC90E09787868780EC90E0918B808B97
:100B500081EC90E0938B828B82EC90E0958B848B80
:100B600086EC90E0978B868B118E128E138E148EEE
:100B7000ACE1B2E082E015968C9315978BE0169667
:100B80008C931697E0EBF0E0E4911796EC931797AF
:100B9000ECE9F0E0E4911896EC93189740E85EE3F6
:100BA00060E070E01D964D935D936D937C9350973C
:100BB0000895789484B5826084BD84B5816084BDD5
:100BC00085B5826085BD85B5816085BD80916E00EB
:100BD000816080936E00109281008091810082601C
:100BE0008093810080918100816080938100809159
:100BF00080008160809380008091B1008460809348
:100C0000B1008091B00081608093B00080917A0043
:100C1000846080937A0080917A00826080937A0069
:100C200080917A00816080937A0080917A00806858
:100C300080937A001092C100E0918F01F0919001B1
:100C400082E08083E0918B01F0918C011082E09131
:100C50008D01F0918E018FEC808310929701E091CD
:100C60009301F091940186E08083E0919101F091ED
:100C70009201808180618083E0919101F0919201E5
:100C8000808188608083E0919101F0919201808160
:100C900080688083E0919101F091920180818F7D45
:100CA000808362E0809121020E941D0280E398EF20
:100CB000AFEFBFEF8093250290932602A093270207
:100CC000B093280260ED77E080E090E00E947E0221
:100CD0000E94B8028823B1F1809122028B3041F149
:100CE00088F18551823070F560911C0270E080E0DF
:100CF00090E00E945F0820E030E040E853E40E946A
:100D000016096B017C0180911D02682F70E080E064
:100D100090E00E9461089B01AC01C701B6010E94EE
:100D20004D072DEC3CEC4CEC5DE30E94160907C02E
:100D300060911C0270E080E090E00E945F084B012F
:100D40005C0106C0812C912C90ECA92E9FE7B92E56
:100D50000E94B802882309F457C0809122028B3088
:100D600029F0E0F18551823058F038C060911E02C0
:100D700070E080E090E00E945F086B017C0134C06D
:100D8000C0911E026C2F6F7770E080E090E00E94AF
:100D9000610820E030E040E853E40E9416096B014E
:100DA0007C0180911F02682F70E080E090E00E943B
:100DB00061089B01AC01C701B6010E944D072DECF3
:100DC0003CEC4CEC5DE30E9416096B017C01C7FF13
:100DD0000BC0F7FAF094F7F8F09406C0C12CD12CB0
:100DE00080ECE82E8FE7F82EA5019401C501B4012F
:100DF0000E948309811108C0A7019601C701B601AD
:100E00000E948309882339F08EE191E00E94B803A3
:100E100084E591E014C087E591E00E94B80342E0C8
:100E2000C501B4010E940B048CE691E00E94B80356
:100E300042E0C701B6010E940B0480E791E00E94E6
:100E4000B8030E94C7013ECFA1E21A2EAA1BBB1B0A
:100E5000FD010DC0AA1FBB1FEE1FFF1FA217B30786
:100E6000E407F50720F0A21BB30BE40BF50B661F9C
:100E7000771F881F991F1A9469F760957095809560
:100E800090959B01AC01BD01CF010895EE0FFF1FAE
:100E90000590F491E02D09945058BB27AA270E9491
:100EA00064070C94D7080E94C90838F00E94D00843
:100EB00020F039F49F3F19F426F40C94C6080EF480
:100EC000E095E7FB0C94C008E92F0E94E80858F36E
:100ED000BA17620773078407950720F079F4A6F51F
:100EE0000C940A090EF4E0950B2EBA2FA02D0B01DD
:100EF000B90190010C01CA01A0011124FF27591B5F
:100F000099F0593F50F4503E68F11A16F040A22F64
:100F1000232F342F4427585FF3CF469537952795D5
:100F2000A795F0405395C9F77EF41F16BA0B620BD4
:100F3000730B840BBAF09150A1F0FF0FBB1F661F1B
:100F4000771F881FC2F70EC0BA0F621F731F841F5E
:100F500048F4879577956795B795F7959E3F08F084
:100F6000B0CF9395880F08F09927EE0F9795879546
:100F700008950E949C0808F481E008950E94D20719
:100F80000C94D7080E94D00858F00E94C90840F07D
:100F900029F45F3F29F00C94C00851110C940B09FF
:100FA0000C94C6080E94E80868F39923B1F355230E
:100FB00091F3951B550BBB27AA276217730784076C
:100FC00038F09F5F5F4F220F331F441FAA1FA9F302
:100FD00035D00E2E3AF0E0E832D091505040E695F0
:100FE000001CCAF72BD0FE2F29D0660F771F881F51
:100FF000BB1F261737074807AB07B0E809F0BB0B44
:10100000802DBF01FF2793585F4F3AF09E3F510557
:1010100078F00C94C0080C940B095F3FE4F3983E01
:10102000D4F3869577956795B795F7959F5FC9F740
:10103000880F911D9695879597F90895E1E0660FC1
:10104000771F881FBB1F621773078407BA0720F03A
:10105000621B730B840BBA0BEE1F88F7E0950895A3
:101060000E94F00888F09F5798F0B92F9927B75140
:10107000B0F0E1F0660F771F881F991F1AF0BA953C
:10108000C9F714C0B13091F00E940A09B1E0089587
:101090000C940A09672F782F8827B85F39F0B93F79
:1010A000CCF3869577956795B395D9F73EF49095EF
:1010B0008095709561957F4F8F4F9F4F0895E8946D
:1010C00009C097FB3EF490958095709561957F4F90
:1010D0008F4F9F4F9923A9F0F92F96E9BB2793953E
:1010E000F695879577956795B795F111F8CFFAF44E
:1010F000BB0F11F460FF1BC06F5F7F4F8F4F9F4F7F
:1011000016C0882311F096E911C0772321F09EE8DC
:10111000872F762F05C0662371F096E8862F70E042
:1011200060E02AF09A95660F771F881FDAF7880F1C
:101130009695879597F90895990F0008550FAA0B72
:10114000E0E8FEEF16161706E807F907C0F01216DA
:101150001306E407F50798F0621B730B840B950BDD
:1011600039F40A2661F0232B242B252B21F4089532
:101170000A2609F4A140A6958FEF811D811D0895CF
:1011800097F99F6780E870E060E008959FEF80EC3A
:10119000089500240A9416161706180609060895DD
:1011A00000240A9412161306140605060895092E43
:1011B0000394000C11F4882352F0BB0F40F4BF2BB2
:1011C00011F460FF04C06F5F7F4F8F4F9F4F0895F2
:1011D00057FD9058440F551F59F05F3F71F04795E8
:1011E000880F97FB991F61F09F3F79F087950895CD
:1011F000121613061406551FF2CF4695F1DF08C0EC
:10120000161617061806991FF1CF86957105610508
:1012100008940895E894BB2766277727CB0197F9B0
:1012200008950E949C0808F48FEF08950E942909F0
:101230000C94D7080E94C90838F00E94D00820F00A
:10124000952311F00C94C0080C94C60811240C943A
:101250000B090E94E80870F3959FC1F3950F50E0C9
:10126000551F629FF001729FBB27F00DB11D639F58
:10127000AA27F00DB11DAA1F649F6627B00DA11DFE
:10128000661F829F2227B00DA11D621F739FB00DA4
:10129000A11D621F839FA00D611D221F749F332714
:1012A000A00D611D231F849F600D211D822F762FAD
:1012B0006A2F11249F5750409AF0F1F088234AF08A
:1012C000EE0FFF1FBB1F661F771F881F91505040F6
:1012D000A9F79E3F510580F00C94C0080C940B09AF
:1012E0005F3FE4F3983ED4F3869577956795B7957D
:1012F000F795E7959F5FC1F7FE2B880F911D969597
:10130000879597F908950E949C08880B990B08957A
:0E13100081E090E0F8940C948D09F894FFCFE2
:10131E00000000005E01DA00270105011901A50198
:10132E006E616E00696E66006F7666002E00D09D4F
:10133E00D0B520D183D0B4D0B0D0B5D182D181D1A7
:10134E008F20D181D187D0B8D182D0B0D182D18C2B
:10135E0020D0BFD0BED0BAD0B0D0B7D0B0D0BDD0D4
:10136E00B8D18F000D0A00D092D0BBD0B0D0B6D07D
:10137E00BDD0BED181D182D18C3A2000202509006A
:06138E00202A43200000AC
:00000001FF
